:020000040800F2
:10000000000002202D3A00087938000881380008E5
:10001000893800089138000899380008000000006D
:10002000000000000000000000000000A1380008EF
:10003000AF38000800000000BD380008CB380008C9
:100040007D3A00087D3A00087D3A00087D3A0008B4
:100050007D3A00087D3A00087D3A00087D3A0008A4
:100060007D3A00087D3A00087D3A0008D93800083A
:10007000ED38000801390008153900082939000851
:100080007D3A00087D3A00087D3A00087D3A000874
:100090007D3A00087D3A00087D3A00087D3A000864
:1000A0007D3A00087D3A00087D3A00087D3A000854
:1000B0003D3900087D3A00087D3A000851390008B2
:1000C000653900087D3A00087D3A00087D3A00084D
:1000D0007D3A00087D3A00087D3A00087D3A000824
:1000E000793900087D3A00087D3A00087D3A000819
:1000F0007D3A00087D3A00087D3A00087D3A000804
:100100007D3A00087D3A00087D3A00087D3A0008F3
:100110007D3A00087D3A00087D3A00087D3A0008E3
:100120007D3A00087D3A00087D3A00087D3A0008D3
:100130007D3A00087D3A00087D3A00087D3A0008C3
:100140007D3A00087D3A00087D3A00087D3A0008B3
:100150007D3A00087D3A00087D3A00087D3A0008A3
:100160007D3A00087D3A00087D3A00087D3A000893
:100170007D3A00087D3A00087D3A00087D3A000883
:100180007D3A00087D3A00087D3A00087D3A000873
:100190007D3A0008000000007D3A00087D3A000822
:1001A0007D3A00087D3A00087D3A00088939000848
:1001B0007D3A00087D3A00087D3A00087D3A000843
:1001C0007D3A00087D3A00087D3A00087D3A000833
:0801D0007D3A00087D3A0008A9
:1001D80010B5054C237833B9044B13B10448AFF379
:1001E80000800123237010BD88000020000000005B
:1001F800B4C0000808B5034B1BB103490348AFF36B
:10020800008008BD000000008C000020B4C0000879
:1002180081F0004102E000BF83F0004330B54FEAAF
:1002280041044FEA430594EA050F08BF90EA020F1C
:100238001FBF54EA000C55EA020C7FEA645C7FEAAF
:10024800655C00F0E2804FEA5454D4EB5555B8BFD2
:100258006D420CDD2C4480EA020281EA030382EA43
:10026800000083EA010180EA020281EA0303362DD5
:1002780088BF30BD11F0004F4FEA01314FF4801CA8
:100288004CEA113102D0404261EB410113F0004FBA
:100298004FEA03334CEA133302D0524263EB430371
:1002A80094EA050F00F0A780A4F10104D5F1200E0F
:1002B8000DDB02FA0EFC22FA05F2801841F100016A
:1002C80003FA0EF2801843FA05F359410EE0A5F13E
:1002D80020050EF1200E012A03FA0EFC28BF4CF06F
:1002E800020C43FA05F3C01851EBE37101F0004525
:1002F80007D54FF0000EDCF1000C7EEB00006EEB32
:100308000101B1F5801F1BD3B1F5001F0CD34908BB
:100318005FEA30004FEA3C0C04F101044FEA445212
:1003280012F5800F80F09A80BCF1004F08BF5FEA99
:10033800500C50F1000041EB045141EA050130BD79
:100348005FEA4C0C404141EB0101013C28BFB1F58B
:10035800801FE9D291F0000F04BF01460020B1FAD6
:1003680081F308BF2033A3F10B03B3F120020CDAA9
:100378000C3208DD02F1140CC2F10C0201FA0CF087
:1003880021FA02F10CE002F11402D8BFC2F1200CEC
:1003980001FA02F120FA0CFCDCBF41EA0C019040A2
:1003A800E41AA2BF01EB0451294330BD6FEA0404EB
:1003B8001F3C1CDA0C340EDC04F11404C4F12002D6
:1003C80020FA04F001FA02F340EA030021FA04F3E8
:1003D80045EA030130BDC4F10C04C4F1200220FA3F
:1003E80002F001FA04F340EA0300294630BD21FA7D
:1003F80004F0294630BD94F0000F83F4801306BF43
:1004080081F480110134013D4EE77FEA645C18BF36
:100418007FEA655C29D094EA050F08BF90EA020FCD
:1004280005D054EA000C04BF1946104630BD91EAC5
:10043800030F1EBF0021002030BD5FEA545C05D1C8
:100448004000494128BF41F0004130BD14F5800407
:100458003CBF01F5801130BD01F0004545F0FE417B
:1004680041F470014FF0000030BD7FEA645C1ABFB0
:10047800194610467FEA655C1CBF0B46024650EAE7
:10048800013406BF52EA033591EA030F41F4002113
:1004980030BD00BF90F0000F04BF0021704730B599
:1004A8004FF4806404F132044FF000054FF000016E
:1004B80050E700BF90F0000F04BF0021704730B52F
:1004C8004FF4806404F1320410F0004548BF404204
:1004D8004FF000013EE700BF42004FEAE2014FEA59
:1004E80031014FEA02701FBF12F07F4393F07F4F34
:1004F80081F06051704732F07F4208BF704793F037
:100508007F4F04BF41F40021704730B54FF4607449
:1005180001F0004521F000411CE700BF50EA01024C
:1005280008BF704730B54FF000050AE050EA0102F5
:1005380008BF704730B511F0004502D5404261EB65
:1005480041014FF4806404F132045FEA915C3FF4A6
:10055800D8AE4FF003025FEADC0C18BF03325FEA43
:10056800DC0C18BF033202EBDC02C2F1200300FAF4
:1005780003FC20FA02F001FA03FE40EA0E0021FA19
:1005880002F11444BDE600BF70B54FF0FF0C4CF407
:10059800E06C1CEA11541DBF1CEA135594EA0C0FB9
:1005A80095EA0C0F00F0DEF82C4481EA030621EAF4
:1005B8004C5123EA4C5350EA013518BF52EA03352F
:1005C80041F4801143F4801338D0A0FB02CE4FF0E1
:1005D8000005E1FB02E506F00042E0FB03E54FF011
:1005E8000006E1FB03569CF0000F18BF4EF0010E09
:1005F800A4F1FF04B6F5007F64F5407404D25FEA05
:100608004E0E6D4146EB060642EAC62141EA5551B7
:100618004FEAC52040EA5E504FEACE2EB4F1FD0CF9
:1006280088BFBCF5E06F1ED8BEF1004F08BF5FEA77
:10063800500E50F1000041EB045170BD06F0004629
:1006480046EA010140EA020081EA0301B4EB5C04D6
:10065800C2BFD4EB0C0541EA045170BD41F48011CE
:100668004FF0000E013C00F3AB8014F1360FDEBFF3
:10067800002001F0004170BDC4F10004203C35DACF
:100688000C341BDC04F11404C4F1200500FA05F352
:1006980020FA04F001FA05F240EA020001F00042F3
:1006A80021F0004110EBD37021FA04F642EB060169
:1006B8005EEA430E08BF20EAD37070BDC4F10C0493
:1006C800C4F1200500FA04F320FA05F001FA04F257
:1006D80040EA020001F0004110EBD37041F1000143
:1006E8005EEA430E08BF20EAD37070BDC4F120054E
:1006F80000FA05F24EEA020E20FA04F301FA05F2B6
:1007080043EA020321FA04F001F0004121FA04F25D
:1007180020EA020000EBD3705EEA430E08BF20EA2D
:10072800D37070BD94F0000F0FD101F00046400067
:1007380041EB010111F4801F08BF013CF7D041EAE9
:10074800060195F0000F18BF704703F000465200ED
:1007580043EB030313F4801F08BF013DF7D043EABE
:100768000603704794EA0C0F0CEA135518BF95EA74
:100778000C0F0CD050EA410618BF52EA4306D1D1FB
:1007880081EA030101F000414FF0000070BD50EA1A
:10079800410606BF1046194652EA430619D094EAA4
:1007A8000C0F02D150EA013613D195EA0C0F05D18E
:1007B80052EA03361CBF104619460AD181EA0301E2
:1007C80001F0004141F0FE4141F470014FF000009A
:1007D80070BD41F0FE4141F4780170BD70B54FF035
:1007E800FF0C4CF4E06C1CEA11541DBF1CEA1355B5
:1007F80094EA0C0F95EA0C0F00F0A7F8A4EB050497
:1008080081EA030E52EA03354FEA013100F088808D
:100818004FEA03334FF0805545EA131343EA126356
:100828004FEA022245EA111545EA10654FEA00260B
:100838000EF000419D4208BF964244F1FD0404F5C4
:10084800407402D25B084FEA3202B61A65EB030520
:100858005B084FEA32024FF480104FF4002CB6EBDD
:10086800020E75EB030E22BFB61A754640EA0C005D
:100878005B084FEA3202B6EB020E75EB030E22BF9D
:10088800B61A754640EA5C005B084FEA3202B6EBDE
:10089800020E75EB030E22BFB61A754640EA9C009D
:1008A8005B084FEA3202B6EB020E75EB030E22BF6D
:1008B800B61A754640EADC0055EA060E18D04FEA2B
:1008C800051545EA16754FEA06164FEAC30343EACB
:1008D80052734FEAC2025FEA1C1CC0D111F4801F98
:1008E8000BD141EA00014FF000004FF0004CB6E791
:1008F80011F4801F04BF01430020B4F1FD0C88BF30
:10090800BCF5E06F3FF6AFAEB5EB030C04BFB6EB3A
:10091800020C5FEA500C50F1000041EB045170BD2D
:100928000EF0004E4EEA113114EB5C04C2BFD4EB5A
:100938000C0541EA045170BD41F480114FF0000EDE
:10094800013C90E645EA060E8DE60CEA135594EA5A
:100958000C0F08BF95EA0C0F3FF43BAF94EA0C0F5D
:100968000AD150EA01347FF434AF95EA0C0F7FF4D2
:1009780025AF104619462CE795EA0C0F06D152EA26
:1009880003353FF4FDAE1046194622E750EA41060A
:1009980018BF52EA43067FF4C5AE50EA41047FF41B
:1009A8000DAF52EA43057FF4EBAE12E74A0011D2CD
:1009B80012F5001211D20DD56FF47873B3EB6252B1
:1009C8000ED44FEAC12343F0004343EA505323FABD
:1009D80002F070474FF00000704750EA013002D132
:1009E8004FF0FF3070474FF0000070474FEA410268
:1009F800B2F1E04324BFB3F5001CDCF1FE5C0DD975
:100A080001F0004C4FEAC0024CEA5070B2F1004FBE
:100A180040EB830008BF20F00100704711F0804FC1
:100A280021D113F13872BCBF01F00040704741F486
:100A380080114FEA5252C2F11802C2F1200C10FA8A
:100A48000CF320FA02F018BF40F001004FEAC1236E
:100A58004FEAD32303FA0CFC40EA0C0023FA02F312
:100A68004FEA4303CCE77FEA625307D150EA0133E8
:100A78001EBF4FF0FE4040F44000704701F00040B8
:100A880040F0FE4040F40000704700BF53B94AB937
:100A9800002908BF00281CBF4FF0FF314FF0FF307E
:100AA80000F06AB9ADF1080C6DE904CE00F006F863
:100AB800DDF804E0DDE9022304B070472DE9F047D2
:100AC800089D0C46002B4ED194468C458646B2FABA
:100AD80082F262D94AB1C2F12003914020FA03F3AD
:100AE8000CFA02FC194300FA02FE4FEA1C471FFAEF
:100AF8008CF6B1FBF7F44FEA1E4307FB141143EAE7
:100B0800014304FB06F199420AD91CEB030304F1E3
:100B1800FF3080F01281994240F20F81023C634419
:100B2800591A1FFA8EF3B1FBF7F007FB101143EACD
:100B3800014300FB06F69E420AD91CEB030300F1B1
:100B4800FF3180F0FC809E4240F2F9806344023815
:100B58009B1B40EA044000211DB1D3400022C5E997
:100B68000032BDE8F0878B4205D90DB1C5E9000117
:100B780000210846F5E7B3FA83F1002946D1A342DC
:100B880002D39042C0F0F080861A64EB0303012080
:100B9800002DE6D0C5E90063E3E7002A40F0908025
:100BA800A1EB0C044FEA1C481FFA8CF70121B4FB97
:100BB800F8F64FEA1E4308FB164443EA044307FBD2
:100BC80006F0984208D91CEB030306F1FF3402D261
:100BD800984200F2CD8026461C1A1FFA8EF3B4FB09
:100BE800F8F008FB104443EA044300FB07F79F4270
:100BF80008D91CEB030300F1FF3402D29F4200F234
:100C0800B0802046DB1B40EA0640A5E7C1F120067C
:100C18008B4022FA06F71F4320FA06FC04FA01F378
:100C280043EA0C03F44000FA01F8380C4FEA134980
:100C3800B4FBF0FE1FFA87FC00FB1E4449EA04449B
:100C48000EFB0CF9A14502FA01F20AD93C190EF182
:100C5800FF3A80F08480A14540F28180AEF1020E17
:100C68003C44A4EB09041FFA83F9B4FBF0F300FB3E
:100C7800134449EA044403FB0CFCA44507D93C1976
:100C880003F1FF3067D2A44565D9023B3C4443EAEF
:100C98000E40A0FB0293A4EB0C049C42CE469C465B
:100CA80051D34ED055B1B8EB0E0364EB0C0404FAE3
:100CB80006F6CB401E43CC40C5E90064002150E74E
:100CC800C2F1200320FA03F10CFA02FC24FA03F320
:100CD80094400C434FEA1C4800FA02FE1FFA8CF7B6
:100CE800B3FBF8F008FB1031230C43EA014300FB87
:100CF80007F1994208D91CEB030300F1FF362CD207
:100D080099422AD9023863445B1AA4B2B3FBF8F1BA
:100D180008FB113344EA034401FB07F3A34208D953
:100D28001CEB040401F1FF3613D2A34211D9023996
:100D38006444E41A41EA004139E70446F0E608460B
:100D480006E7C845AED2B9EB020E63EB070C0138D3
:100D5800A8E73146EDE7034699E73046D4E7D6469B
:100D68007FE7634402384DE70646234608460FE707
:100D7800023E634430E700BF704700BF80B500AF54
:100D8800182101200BF076F80346184680BD80B57F
:100D980084B000AF78607B689B68002B02D17B68C9
:100DA8000A229A607B689B7B002B02D17B68012218
:100DB8009A737B68DB7B002B02D17B680122DA7394
:100DC8007B681B7C002B02D17B6801221A747B682C
:100DD8005B7C002B02D17B6801225A747B689B7C68
:100DE800002B02D17B6801229A747B68DB7C002B84
:100DF80002D17B680122DA747B681B7D002B02D14B
:100E08007B6801221A757B685B7D002B02D17B68A9
:100E180002225A757B68DB7B1946786800F06AF80D
:100E28000346002B01D001235FE07B681B7C194639
:100E3800786800F0B3F80346002B01D0012354E092
:100E48007B68597C7B689B7C1A46786800F0FAF8C6
:100E58000346002B01D0012347E07B68DB7C194661
:100E6800786800F083F90346002B01D001233CE0A9
:100E78007B681B7D1946786800F0CCF90346002B87
:100E880001D0012331E07B685B7D1946786800F06A
:100E980061FA0346002B01D0012326E0786800F0B0
:100EA80080FA0346002B01D001231EE00023FB73C8
:100EB80007F10F031946786800F0B2FA0346002BD1
:100EC80001D0012311E0FB7B03F02003002B09D0A4
:100ED800FB7B03F00803002B04D1FB7B03F010031A
:100EE800002B01D0012300E0002318461037BD462F
:100EF80080BD000080B483B000AF78600B46FB7003
:100F0800FB78013B032B3FD801A252F823F000BF26
:100F1800290F00083B0F00085D0F00087F0F00082D
:100F28007B68DB7DDBB223F00303DAB27B68DA751A
:100F38002CE07B68DB7DDBB243F00103DAB27B682F
:100F4800DA757B68DB7DDBB223F00203DAB27B68FB
:100F5800DA751BE07B68DB7DDBB243F00203DAB2B3
:100F68007B68DA757B68DB7DDBB203F00103DAB2FC
:100F78007B68DA750AE07B68DB7DDBB243F003034C
:100F8800DAB27B68DA7501E0012300E00023184635
:100F98000C37BD465DF8047B704700BF80B483B052
:100FA80000AF78600B46FB70FB78013B032B3FD802
:100FB80001A252F823F000BFD10F0008E30F000888
:100FC80005100008271000087B68DB7DDBB223F0E2
:100FD8000C03DAB27B68DA752CE07B68DB7DDBB268
:100FE80043F00403DAB27B68DA757B68DB7DDBB239
:100FF80023F00803DAB27B68DA751BE07B68DB7DD7
:10100800DBB223F00403DAB27B68DA757B68DB7D38
:10101800DBB243F00803DAB27B68DA750AE07B6872
:10102800DB7DDBB243F00C03DAB27B68DA7501E0F2
:10103800012300E0002318460C37BD465DF8047B09
:10104800704700BF80B485B000AF78600B46FB7076
:101058001346BB700023FB73FB78032B20D0032BB4
:1010680031DC012B02D0022B09D02CE07B68DB7D20
:10107800DBB223F03003DAB27B68DA7525E07B68EF
:10108800DB7DDBB243F01003DAB27B68DA757B688C
:10109800DB7DDBB223F02003DAB27B68DA7514E07B
:1010A8007B68DB7DDBB203F01003DAB27B68DA75AC
:1010B8007B68DB7DDBB243F02003DAB27B68DA754C
:1010C8000123FB7301E0012349E0FB7B002B45D0A2
:1010D800BB78013B032B3FD801A252F823F000BF95
:1010E800F91000080B1100082D1100084F11000815
:1010F8007B68DB7DDBB203F03F03DAB27B68DA752D
:101108002CE07B68DB7DDBB243F04003DAB27B681E
:10111800DA757B68DB7DDBB203F07F03DAB27B68CC
:10112800DA751BE07B68DB7DDBB223F04003DAB2C3
:101138007B68DA757B68DB7DDBB263F07F03DAB24C
:101148007B68DA750AE07B68DB7DDBB263F03F031E
:10115800DAB27B68DA7501E0012300E00023184663
:101168001437BD465DF8047B704700BF80B483B078
:1011780000AF78600B46FB70FB78013B032B3FD830
:1011880001A252F823F000BFA1110008B311000812
:10119800D5110008F71100087B689B7DDBB223F0AE
:1011A8000303DAB27B689A752CE07B689B7DDBB21F
:1011B80043F00103DAB27B689A757B689B7DDBB2EA
:1011C80023F00203DAB27B689A751BE07B689B7D8B
:1011D800DBB223F00103DAB27B689A757B689B7DEA
:1011E800DBB243F00203DAB27B689A750AE07B68E7
:1011F8009B7DDBB243F00303DAB27B689A7501E0AA
:10120800012300E0002318460C37BD465DF8047B37
:10121800704700BF80B483B000AF78600B46FB70A6
:10122800FB78013B072B00F28B8001A252F823F0D8
:10123800591200086B1200088D120008AF1200083E
:10124800D1120008F312000815130008371300081C
:101258007B689B7DDBB223F01C03DAB27B689A754E
:1012680070E07B689B7DDBB223F01803DAB27B6801
:101278009A757B689B7DDBB243F00403DAB27B6826
:101288009A755FE07B689B7DDBB223F01403DAB2CA
:101298007B689A757B689B7DDBB243F00803DAB202
:1012A8007B689A754EE07B689B7DDBB223F0100368
:1012B800DAB27B689A757B689B7DDBB243F00C03DE
:1012C800DAB27B689A753DE07B689B7DDBB223F0E0
:1012D8000C03DAB27B689A757B689B7DDBB243F0BE
:1012E8001003DAB27B689A752CE07B689B7DDBB2D1
:1012F80023F00803DAB27B689A757B689B7DDBB2C2
:1013080043F01403DAB27B689A751BE07B689B7D17
:10131800DBB223F00403DAB27B689A757B689B7DA5
:10132800DBB243F01803DAB27B689A750AE07B688F
:101338009B7DDBB243F01C03DAB27B689A7501E04F
:10134800012300E0002318460C37BD465DF8047BF6
:10135800704700BF80B483B000AF78600B46FB7065
:10136800FB78012B02D0022B09D011E07B689B7D12
:10137800DBB223F04003DAB27B689A750AE07B6837
:101388009B7DDBB243F04003DAB27B689A7501E0DB
:10139800012300E0002318460C37BD465DF8047BA6
:1013A800704780B586B004AF78607B6818687B6842
:1013B80016337A68926802920222019200930123FE
:1013C80007226C2104F0E8FE034618460837BD469C
:1013D80080BD80B588B004AF786039600023BB81D8
:1013E8007B6818687B689B6802930223019307F166
:1013F8000C03009301230E226C2104F0E1FF034645
:10140800FB733B7B1B021AB27B7B1BB213431BB2E1
:101418009AB23B681A80FB7B18461037BD4680BDE0
:1014280080B586B004AF786039607B6818687B68DF
:101438009B680293012301933B68009301230B22CD
:101448006C2104F0BDFF034618460837BD4680BD31
:1014580080B485B000AF87ED030AB8607960BB68D7
:1014680007EE903AF8EEE77A97ED037AB4EEE77A6A
:10147800F1EE10FA01DDBB6813E07B6807EE903AE5
:10148800F8EEE77A97ED037AB4EEE77AF1EE10FA20
:1014980001D57B6805E0D7ED037AFDEEE77A17EE14
:1014A800903A18461437BD465DF8047B704780B4FF
:1014B80087B000AF786187ED040AC7ED030A87EDAE
:1014C800021AC7ED011A7B693A691A607B69FA68E2
:1014D8005A607B69BA689A607B697A68DA607B6966
:1014E8004FF000021A617B694FF000025A617B6974
:1014F8004FF000029A6100BF1C37BD465DF8047BBF
:10150800704780B483B000AF786087ED000A7B68CD
:1015180093ED067A7B68D3ED037AB4EEE77AF1EEC1
:1015280010FAACBF01230023DBB283F00103DBB266
:10153800002B0ED1D7ED007AF5EEC07AF1EE10FA55
:10154800CCBF01230023DBB283F00103DBB2002B05
:1015580057D07B6893ED067A7B68D3ED037AF1EE7A
:10156800677AB4EEE77AF1EE10FA94BF012300230C
:10157800DBB283F00103DBB2002B0ED1D7ED007A8A
:10158800F5EEC07AF1EE10FA4CBF01230023DBB26E
:1015980083F00103DBB2002B33D07B6893ED067A2E
:1015A8007B68D3ED006A7B68D3ED017A76EEA76A93
:1015B8007B68D3ED027A76EEA76AD7ED007A66EEFD
:1015C800A76A7B6893ED006A7B68D3ED027A77EEB1
:1015D800A77A36EE276A7B68D3ED047A66EE277A17
:1015E80076EEE76A7B6893ED026A7B68D3ED057A4D
:1015F80066EE277A76EEA77A77EE277A7B68C3EDD0
:10160800067A7B681A697B685A617B683A681A614E
:101618007B689B6907EE903AB0EE670A0C37BD46C7
:101628005DF8047B704780B584B000AFF860B9609E
:101638003B601346FB80FB68BA681A60FB683A682F
:101648009A60FB68FA889A80FB683A8B9A81FB68F3
:101658001033FA88B968184600F05AF9FB6828333D
:101668003A8B3968184600F053F900BF1037BD4669
:1016780080BD000080B584B000AFF86087ED020A35
:10168800C7ED010AD7ED017AF5EE407AF1EE10FACE
:1016980015D1FB681033DFED2D0A97ED020A1846C5
:1016A80000F05EFAFB682833DFED280A97ED020A9E
:1016B800184600F055FAFB6800221A6441E0D7ED9D
:1016C800017AF5EEC07AF1EE10FA1ADDFB681033F4
:1016D800DFED1E0A97ED020A184600F041FAFB6892
:1016E8002833D7ED010A97ED020A184600F038FAB8
:1016F800D7ED017AFDEEE77A17EE902AFB681A64B7
:101708001FE0FB681033DFED120A97ED020A184656
:1017180000F026FAFB682833D7ED017AF0EEE77A75
:10172800F0EE670A97ED020A184600F019FAD7EDAD
:10173800017AF0EEE77AFDEEE77A17EE902AFB6879
:101748001A6400BF1037BD4680BD00BF000000000E
:1017580000FF7F4780B584B000AFF860B9603B6098
:101768001346FB80FB683A681A60FB683A8B9A80DC
:10177800FB68FA699A60FB683A8C9A81FB687A6A16
:101788001A61FB683A8D9A82FB68FA6A9A61FB686B
:101798003A8E9A83FB687A6B1A62FB683A8F9A844E
:1017A800FB68BA689A62FB68FA889A85FB683033E6
:1017B800FA88B968184600F0ABF8FB681868FB6847
:1017C8009B880022194604F011FCFB689868FB68A6
:1017D8009B890022194604F009FCFB681869FB681C
:1017E8009B8A0022194604F001FCFB689869FB6893
:1017F8009B8B0022194604F0F9FBFB68186AFB680A
:101808009B8C0122194604F0F1FB00BF1037BD463E
:1018180080BD000080B584B000AFF860084611466E
:101828001A4687ED010A0346FB720B46BB72134644
:101838007B72FB681868FB689B88FA7A194604F083
:10184800D5FBFB689868FB689B89BA7A194604F04F
:10185800CDFBFB681869FB689B8A7A7A194604F005
:10186800C5FBFB689869FB689B8B3A7E194604F0B8
:10187800BDFBFB68186AFB689B8C3A7F194604F02D
:10188800B5FBFB683033DFED050A97ED010A184612
:1018980000F060F800BF1037BD4680BD0000484228
:1018A80080B489B000AF87ED050AC7ED040A87ED5B
:1018B800031AC7ED021A87ED012A97ED057AD7EDCD
:1018C800047A77EE676A97ED037AD7ED047A37EEF4
:1018D800677AC6EE877AC7ED077A97ED017AD7ED72
:1018E800027A37EE677AD7ED077A67EE277A97EDAF
:1018F800027A77EE277AC7ED067ABB6907EE903A47
:10190800B0EE670A2437BD465DF8047B70470000D7
:1019180080B584B000AFF860B9601346FB80FB68FF
:101928000B4A1A61FB68BA681A60FB68FA889A80E1
:10193800FB6800225A61B86807F016F8FB88194658
:10194800B86807F05BF900BF1037BD4680BD00BF1F
:1019580080FE210AB0B584B000AFF86087ED020AB6
:10196800C7ED010AD7ED027AF5EE407AF1EE10FAEA
:1019780037D1FB689B88002B05D1FB681B681B6867
:1019880000225A63E1E0FB689B88042B05D1FB68C1
:101998001B681A6800239363D7E0FB689B88082BB1
:1019A80005D1FB681B681A680023D363CDE0FB6888
:1019B8009B880C2B05D1FB681B681A6800231364ED
:1019C800C3E0FB689B88102B05D1FB681B681A686D
:1019D80000239364B9E0FB681B681A680023D3648A
:1019E800B3E0FB681B6907EE903AF8EE676A97ED7B
:1019F800027AC6EE877AFCEEE77A17EE902AFB6841
:101A08009A60FB689B6803F57F43FE33514AA2FB4B
:101A18000323DB0B9BB2013B9AB2FB689A81FB68FC
:101A28001B6907EE903AB8EE677AFB689B89013329
:101A380007EE903AF8EEE77AC7EE276A97ED027A52
:101A4800C6EE877AB7EE007A77EEC77AFCEEE77AC9
:101A580017EE903A9AB2FB68DA81FB68DB89184680
:101A6800FEF728FD04460D46D7ED017AF0EEE77A39
:101A780017EE900AFEF730FD02460B46204629462F
:101A8800FEF782FD02460B46104619464FF000024B
:101A9800314BFEF7A3FE02460B4610461946FEF7E9
:101AA80085FF03469BB21A46FB685A61FB689A8910
:101AB800FB681B681B689A62FB68DA89FB681B680D
:101AC8001B68DA62FB68DA89FB681B68DA60FB6806
:101AD8009B88002B06D1FB681B681B68FA68526953
:101AE8005A6332E0FB689B88042B06D1FB681B68AD
:101AF8001A68FB685B69936327E0FB689B88082B7F
:101B080006D1FB681B681A68FB685B69D3631CE035
:101B1800FB689B880C2B06D1FB681B681A68FB685E
:101B28005B69136411E0FB689B88102B06D1FB6886
:101B38001B681A68FB685B69936406E0FB681B68AE
:101B48001A68FB685B69D364FFE700BF1037BD46BE
:101B5800B0BD00BF018000800000594000000000B7
:101B6800B0B584B000AFF86087ED020AC7ED010A8E
:101B7800D7ED027AF5EE407AF1EE10FA37D1FB682C
:101B88009B88002B05D1FB681B681B6800225A63E1
:101B9800E1E0FB689B88042B05D1FB681B681A6889
:101BA80000239363D7E0FB689B88082B05D1FB686B
:101BB8001B681A680023D363CDE0FB689B880C2B55
:101BC80005D1FB681B681A6800231364C3E0FB682F
:101BD8009B88102B05D1FB681B681A680023936447
:101BE800B9E0FB681B681A680023D364B3E0FB689C
:101BF8001B6907EE903AF8EE676A97ED027AC6EE2F
:101C0800877AFCEEE77A17EE902AFB689A60FB6801
:101C18009B6803F57F43FE33534AA2FB0323DB0B88
:101C28009BB2013B9AB2FB689A81FB681B6907EE7D
:101C3800903AB8EE677AFB689B89013307EE903AD1
:101C4800F8EEE77AC7EE276A97ED027AC6EE877A4A
:101C5800B7EE007A77EEC77AFCEEE77A17EE903A9D
:101C68009AB2FB68DA81FB68DB891846FEF722FC2A
:101C780004460D46D7ED017AF0EEE77A17EE900AA2
:101C8800FEF72AFC02460B4620462946FEF77CFC56
:101C980002460B461046194631A3D3E90023FEF746
:101CA8009DFD02460B4610461946FEF77FFE034689
:101CB8009BB21A46FB685A61FB689A89FB681B68E5
:101CC8001B689A62FB68DA89FB681B681B68DA6222
:101CD800FB68DA89FB681B68DA60FB689B88002B65
:101CE80006D1FB681B681B68FA6852695A6332E0C0
:101CF800FB689B88042B06D1FB681B681A68FB6885
:101D08005B69936327E0FB689B88082B06D1FB6817
:101D18001B681A68FB685B69D3631CE0FB689B88D7
:101D28000C2B06D1FB681B681A68FB685B69136497
:101D380011E0FB689B88102B06D1FB681B681A68AA
:101D4800FB685B69936406E0FB681B681A68FB68BC
:101D58005B69D364FFE700BF1037BD46B0BD00BF65
:101D680000000000E0FFEF400180008080B584B0F3
:101D780000AFF860B9607A603B60FB68BA681A61C6
:101D8800FB687A689A61FB683A681A62FB68002205
:101D98001A60FB6800225A60FB684FF000025A6222
:101DA800FB684FF000029A62FB684FF00002DA62AB
:101DB8004FF480337A6893FBF2F2796801FB02F200
:101DC8009B1AC3F58032FB685A61FB6800221A63CC
:101DD800FB684FF000025A63FB684FF000029A63F9
:101DE800FB684FF000021A64FB684FF000025A6467
:101DF8003C21B86807F0BAF800BF1037BD4680BD6F
:101E0800B0B584B000AF78607B681B691B685A6AFC
:101E18007B681A607B681A687B685B68D31AFB600A
:101E28007B685B69DA0F13445B101A46FB689342C0
:101E380005DD7B685B69FA68D31AFB600EE07B6896
:101E48005B695B42DA0F13445B101A46FB689342E6
:101E580004DA7B685B69FA681344FB607B68FA689C
:101E6800DA617B681A6B7B68DB691A447B681A63E2
:101E78007B6893ED0D7A7B68DB6907EE903AB8EEE4
:101E8800E76A7B689B6907EE903AF8EEE76AC6EE68
:101E9800267A77EE277A7B68C3ED0D7A7B681B6C10
:101EA8001846FEF719FB04460D467B68DB6907EE0A
:101EB800903AB8EEE77A7B689B6907EE903AF8EEBD
:101EC800E77AC7EE276A16EE900AFEF705FB4FF091
:101ED8000002274BFEF758FB02460B4620462946D0
:101EE800FEF79CF902460B4610461946FEF77EFDA2
:101EF80002467B681A647B689B6B1846FEF7ECFA0F
:101F080004460D467B68DB6907EE903AF8EEE76A0F
:101F18007B689B6907EE903AB8EEE77AC6EE877A57
:101F280077EEA77A17EE900AFEF7D6FA0EA3D3E952
:101F38000023FEF729FB02460B4620462946FEF7FA
:101F48006DF902460B4610461946FEF74FFD02464C
:101F58007B689A637B681A687B685A6000BF103791
:101F6800BD46B0BDAFF30080182D4454FB21094095
:101F78000000244000000000B0B584B000AF7860D5
:101F88007B68DB697A68126A02FB03F307EE903A12
:101F9800F8EEE77A7B68C3ED097A7B685B6A1846D6
:101FA800FEF79AFA4FF00002534BFEF7EDFA02469D
:101FB8000B4614461D467B689B6907EE903AF8EE7F
:101FC800E77A17EE900AFEF787FA02460B46204694
:101FD8002946FEF703FC02460B4610461946FEF753
:101FE80005FD02467B689A627B68D3ED097A77EE35
:101FF800A77A17EE900AFEF76FFA3DA3D3E90023FC
:10200800FEF7C2FA02460B4614461D467B689B69DA
:1020180007EE903AF8EEE77A17EE900AFEF75CFAC8
:1020280002460B4620462946FEF7D8FB02460B46D9
:1020380010461946FEF7DAFC02467B68DA627B68CE
:102048005B6A1846FEF748FA4FF000022B4BFEF782
:102058009BFA02460B4614461D467B689B6907EEB1
:10206800903AF8EEE77A17EE900AFEF735FA02464C
:102078000B4620462946FEF7B1FB02460B461046A2
:102088001946FEF7B3FC02467B685A647B68DA6A35
:102098007B689A607B6893ED027A7B68D3ED037A5C
:1020A80077EE677AC7ED037AD7ED037AF5EE407AD3
:1020B800F1EE10FA04D17B684FF00002DA630FE00A
:1020C8007B681B6A012B02D1B7EE007A01E09FED15
:1020D8000C7AD7ED036AC6EE877A7B68C3ED0F7A70
:1020E8007B689A687B68DA6000BF1037BD46B0BD70
:1020F800182D4454FB21094000004E4000002440A4
:102108000000000080B58AB00AAF2022464947483F
:1021180008F0BCF918224649444808F037FA4FF449
:102128007A734FF4005243494348FFF71FFE0023D8
:102138000093424B042241494148FFF774FA0423B3
:102148000093404B00223F493F48FFF76CFADFED10
:102158003F0A9FED3F0A3A48FFF78CFADFED3B0A4A
:102168009FED3B0A3848FFF785FA02230893394B5D
:10217800079304230693374B05934FF400530493B6
:10218800344B03934FF480430293324B01934FF443
:10219800004300932F4B08222F493048FFF7DAFA03
:1021A8007F212F4802F0E6FF78222E492C4802F0C2
:1021B800D3F80023019303230093DFED2B0A9FED4F
:1021C8002B0A7823274A2649294800F065F8012375
:1021D800019303230093DFED270A9FED240A782358
:1021E800204A1F49244800F057F8FEF7C7FD034668
:1021F800224A1360214B1B68214A1A601F4B1B6837
:102208001846FEF7C4FDDFED1F1A9FED101ADFED2B
:102218001E0A9FED1E0A1E48FFF749F91D4806F0E1
:1022280013FC00BFBD4680BDFC020020480500200D
:1022380020030020E8060020740100203407002055
:10224800A400002080070020E80000200000000013
:102258000000FA4400040048CC0700202C010020AC
:10226800680300200C0200201C5ED13E00F07F4570
:10227800BC01002017DD9B3EE40100206403002020
:102288003404002000FF7F470000C84200007A4461
:10229800380300209C06002080B489B000AF786124
:1022A8003961FA60BB6087ED010AC7ED000A7B69F6
:1022B8003A691A607B69FA685A607B69BA689A60F9
:1022C8007B697A681A617B6997F828201A737B6999
:1022D80097F82C205A737B694FF000025A617B698A
:1022E8004FF000029A617B694FF00002DA617B6966
:1022F8004FF000021A627B693A685A620023FB6158
:1023080009E07B695A68FB695B00134400221A8064
:10231800FB690133FB617B699A68FB699A42F0D8D3
:1023280000BF00BF2437BD465DF8047B704700003E
:1023380080B584B000AF78600023FB600023BB60E9
:102348001CE07B685B7B1A46BB681A447B689B6809
:102358009A420DD27B685A687B685B7B1946BB68DA
:102368000B445B0013441B881A46FB681344FB604C
:102378007B681B7B1A46BB681344BB607B689B6801
:10238800BA689A42DDD3FB6807EE903AF8EE676ABE
:102398007B689B687A68127BB3FBF2F307EE903A8E
:1023A800B8EE677AC6EE877A7B68C3ED057A7B68F4
:1023B800D3ED057A7B6893ED047A9FED232ADFED50
:1023C800231AB0EE471ADFED210AB0EE670AFFF7CD
:1023D80067FAF0EE407A7B68C3ED067A7B6893ED86
:1023E800067A7B68D3ED097A77EE677A7B68C3ED66
:1023F800077A7B68DB691846FEF76EF80EA3D3E907
:102408000023FEF7C1F802460B46104619460CA3F6
:10241800D3E90023FDF700FF02460B461046194694
:10242800FEF7E4FA02467B681A6200BF1037BD4621
:1024380080BD00BFAFF300801CFC2436D35B2E4068
:10244800DAD7662E10DE38403333534000000000E0
:1024580080B500AF01F00FFB00F018F800F062FC47
:1024680000F016FC00F082F900F0CEF900F022FA34
:1024780000F0A2FA00F056F800F02EF900F0ECF89F
:1024880000F056FBFFF73EFE00BFFDE780B594B0B5
:1024980000AF07F1180338220021184609F0B4FDEF
:1024A8003B1D00221A605A609A60DA601A610020A7
:1024B80005F0D2F90223BB614FF480737B6240239D
:1024C800BB6202237B630223BB630423FB635523A4
:1024D8003B6402237B640223BB640223FB6407F191
:1024E8001803184605F06CFA0346002B01D000F0DB
:1024F80055FE0F237B600323BB600023FB60002392
:102508003B6100237B613B1D0421184605F06AFDF1
:102518000346002B01D000F041FE00BF5037BD46F6
:1025280080BD000080B58CB000AF07F12403002205
:102538001A605A609A603B1D20220021184609F053
:1025480063FD414B4FF0A0421A603F4B4FF44032BD
:102558005A603D4B00229A603B4B0022DA603A4BAE
:1025680000221A61384B01225A61374B04229A61C2
:10257800354B00221A77344B01225A77324B03220B
:102588001A62314B002283F824202F4B4FF4AC629F
:10259800DA622D4B4FF480621A632B4B012283F8C9
:1025A8003820294B0022DA63274B002283F8402089
:1025B800254801F015FD0346002B01D000F0EEFD83
:1025C80000237B6207F1240319461F4802F034FEFA
:1025D8000346002B01D000F0E1FD1C4B7B60062375
:1025E800BB600723FB607F233B6104237B610023DF
:1025F800BB613B1D1946144801F0A0FF0346002BA0
:1026080001D000F0CBFD124B7B600C23BB603B1D5F
:1026180019460D4801F092FF0346002B01D000F047
:10262800BDFD0C4B7B601223BB603B1D1946064861
:1026380001F084FF0346002B01D000F0AFFD00BF7E
:102648003037BD4680BD00BF68030020020030045B
:10265800040060080080F03E80B500AF1B4B1C4AA8
:102668001A601A4B1B4A5A60184B00229A60174B83
:102678000122DA60154B00221A61144B00225A61BC
:10268800124B00229A61114B0022DA610F4B002293
:102698001A620E4803F0E5FC0346002B01D000F057
:1026A8007DFD0021094805F03FF80346002B01D0C5
:1026B80000F074FD0021054805F081F80346002B61
:1026C80001D000F06BFD00BF80BD00BF34040020C6
:1026D800005400403612624080B500AF204B214ABA
:1026E8001A601F4B204A5A601D4B00229A601C4BEF
:1026F8000022DA601A4B00221A61194B0C225A6127
:10270800174B00229A61164B00221A62144B0022C2
:102718005A62134B00229A62114807F067FE03467B
:10272800002B01D000F03AFD00210D4809F0D7FA3E
:102738000346002B01D000F031FD0021084809F0C4
:102748000CFB0346002B01D000F028FD044809F0DB
:102758008DFA0346002B01D000F020FD00BF80BD9C
:10276800480500200080004080841E0080B588B0A5
:1027780000AF07F1100300221A605A609A60DA600D
:102788003B1D00221A605A609A601E4B4FF080422F
:102798001A601C4BA9225A601A4B00229A60194BE6
:1027A80040F2E732DA60174B00221A61154B00221B
:1027B8009A61144806F080F80346002B01D000F017
:1027C800EDFC4FF480533B6107F1100319460D48A7
:1027D80006F0BEFE0346002B01D000F0DFFC2023EC
:1027E8007B600023FB603B1D1946064807F08EFC02
:1027F8000346002B01D000F0D1FC00BF2037BD46B6
:1028080080BD00BF9C06002080B58CB000AF07F1EA
:102818000C0324220021184609F0F6FB3B4600224F
:102828001A605A609A60214B214A1A601F4B002295
:102838005A601E4B00229A601C4B4FF6FF72DA60FA
:102848001A4B00221A61194B00229A610323FB607C
:1028580000233B6101237B610023BB610023FB61F3
:1028680000233B6201237B620023BB620023FB62DF
:1028780007F10C0319460D4806F0D2FA0346002B5F
:1028880001D000F08BFC00233B600023BB603B467B
:102898001946064807F03AFC0346002B01D000F021
:1028A8007DFC00BF3037BD4680BD00BFE806002074
:1028B8000004004080B58EB000AF07F12803002265
:1028C8001A605A609A60DA6007F11C0300221A60E5
:1028D8005A609A603B4600221A605A609A60DA6031
:1028E8001A615A619A61324B324A1A60304B00229F
:1028F8005A602F4B00229A602D4B4FF6FF72DA6018
:102908002B4B00221A612A4B00229A61284805F0B5
:10291800D3FF0346002B01D000F040FC4FF4805356
:10292800BB6207F128031946214806F011FE034649
:10293800002B01D000F032FC1D4806F0FDF80346DC
:10294800002B01D000F02AFC0023FB6100237B62EE
:1029580007F11C031946164807F0D8FB0346002B5D
:1029680001D000F01BFC60233B6000237B60002348
:10297800BB6000233B613B46002219460C4806F029
:10298800D3FC0346002B01D000F008FC3B46042290
:102998001946074806F0C8FC0346002B01D000F092
:1029A800FDFB034800F0E2FE00BF3837BD4680BD9E
:1029B800340700200008004080B59CB000AF07F144
:1029C800600300221A605A609A60DA6007F15403C3
:1029D80000221A605A609A6007F1380300221A60D0
:1029E8005A609A60DA601A615A619A613B1D342212
:1029F8000021184609F008FB4B4B4C4A1A604A4B19
:102A080000225A60484B00229A60474B4FF6FF72EB
:102A1800DA60454B00221A61434B00225A61424B4F
:102A280000229A61404805F047FF0346002B01D079
:102A380000F0B4FB4FF480533B6607F1600319467E
:102A4800394806F085FD0346002B01D000F0A6FBAF
:102A5800354806F071F80346002B01D000F09EFBC4
:102A680000237B650023BB650023FB6507F1540346
:102A780019462D4807F04AFB0346002B01D000F009
:102A88008DFB6023BB630023FB6300233B640023AF
:102A98007B640023BB640023FB6400233B6507F1D0
:102AA800380300221946204806F03EFC0346002B56
:102AB80001D000F073FB07F13803042219461A48C5
:102AC80006F032FC0346002B01D000F067FB002320
:102AD8007B600023BB600023FB6000233B61002375
:102AE8007B614FF40053BB610023FB6100233B6211
:102AF80000237B624FF00073BB620023FB6200235C
:102B08003B6300237B633B1D1946074807F094FB92
:102B18000346002B01D000F041FB034800F026FEDD
:102B280000BF7037BD4680BD8007002000340140DB
:102B380080B59CB000AF07F1600300221A605A60AC
:102B48009A60DA6007F1540300221A605A609A60AA
:102B580007F1380300221A605A609A60DA601A6135
:102B68005A619A613B1D34220021184609F04CFA3B
:102B7800454B464A1A60444B00225A60424B002299
:102B88009A60414B4FF6FF72DA603F4B00221A61A0
:102B98003D4B00225A613C4B00229A613A4805F0AD
:102BA8008BFE0346002B01D000F0F8FA4FF4805357
:102BB8003B6607F160031946334806F0C9FC034633
:102BC800002B01D000F0EAFA2F4805F0B5FF0346C4
:102BD800002B01D000F0E2FA00237B650023BB65DF
:102BE8000023FB6507F154031946274807F08EFABE
:102BF8000346002B01D000F0D1FA6023BB63002309
:102C0800FB6300233B6400237B640023BB64002335
:102C1800FB6400233B6507F13803082219461A486C
:102C280006F082FB0346002B01D000F0B7FA002320
:102C38007B600023BB600023FB6000233B61002313
:102C48007B614FF40053BB610023FB6100233B62AF
:102C580000237B624FF00073BB620023FB620023FA
:102C68003B6300237B633B1D1946074807F0E4FAE2
:102C78000346002B01D000F091FA034800F076FDDE
:102C880000BF7037BD4680BDCC0700200050014012
:102C980080B582B000AF224B9B6C214A43F00403FD
:102CA80093641F4B9B6C03F004037B607B681C4B95
:102CB8009B6C1B4A43F001039364194B9B6C03F014
:102CC80001033B603B68002200210B2002F097FCC7
:102CD8000B2002F0AEFC002200210C2002F08FFC39
:102CE8000C2002F0A6FC002200210D2002F087FC37
:102CF8000D2002F09EFC002200210E2002F07FFC35
:102D08000E2002F096FC002200210F2002F077FC32
:102D18000F2002F08EFC00BF0837BD4680BD00BF03
:102D28000010024080B58AB000AF07F114030022FA
:102D38001A605A609A60DA601A613A4BDB6C394A59
:102D480043F00403D364374BDB6C03F004033B61AB
:102D58003B69344BDB6C334A43F02003D364314B7B
:102D6800DB6C03F02003FB60FB682E4BDB6C2D4A09
:102D780043F00103D3642B4BDB6C03F00103BB600E
:102D8800BB68284BDB6C274A43F00203D364254B0E
:102D9800DB6C03F002037B607B68002220214FF08C
:102DA800904003F023F900224EF206011E4803F07A
:102DB8001DF94FF400537B614FF48813BB61002366
:102DC800FB6107F114031946184802F08DFF202310
:102DD8007B610123BB610023FB6100233B6207F198
:102DE800140319464FF0904002F07EFF4EF206039E
:102DF8007B610123BB610023FB6100233B6207F178
:102E080014031946084802F06FFF00220021282009
:102E180002F0F5FB282002F00CFC00BF2837BD4665
:102E280080BD00BF001002400004004800080048B0
:102E380080B483B000AF00237B6000233B600FE0C9
:102E48003B680233772B08D83B6802330F4A32F8C5
:102E580013301A467B6813447B603B6803333B603E
:102E68003B68772BECD97B6807EE903AB8EE677A27
:102E7800DFED076AC7EE267A064BC3ED007A00BF7E
:102E88000C37BD465DF8047B704700BF0C0200207C
:102E9800000020423408002080B582B000AF78607E
:102EA8007B68324A93425DD1314B1B78452B59D10F
:102EB8002F4BD3F801301A462E4B1A602C4BD3F8FF
:102EC80005301A462C4B1A60294BD3F809301A469C
:102ED8002A4B1A60264B5A7B294B1A70244BD3F87D
:102EE8000E301A46274B1A60214BD3F812301A4677
:102EF800254B1A6004222549254809F0C9F81D4BBD
:102F08001B68244A53621C4B1B68234A53621C4BA0
:102F18001B781B09DBB203F00103DAB21F4B1A70EE
:102F2800174B1B78DB08DBB203F00103DAB21C4B4A
:102F38001A70134B1B789B08DBB203F00103DAB25B
:102F4800184B1A700E4B1B785B08DBB203F00103B9
:102F5800DAB2154B1A700A4B1B7803F00103DAB288
:102F6800124B1A7000BF0837BD4680BD48050020C7
:102F780020030020380800203C08002030080020EA
:102F8800180800201C080020200800203603002014
:102F980024080020BC010020E401002028000020B3
:102FA800290000202A0000202B00002040080020D3
:102FB800B0B584B002AF78607B685F4A934240F056
:102FC800B6805E48FEF71CFF5C48FEF7D5FF5C48FC
:102FD800FFF7AEF95B48FFF7ABF9FFF729FF5A4B4C
:102FE8001B685A491846FEF7F4F9594BD3ED006AA5
:102FF800584BD3ED017A86EEA77A514BD3ED087A78
:1030080077EE677AB0EE670A5348FEF77AFAF0EE81
:10301800407A52494FF6FF70B0EE670AFEF718FA89
:1030280003464F4A13604F4B1B681846FDF742FA98
:1030380002460B4610461946FDF7D8FC07EE900AE3
:10304800F0EEE77A464B1B6807EE103AB8EEC77AFF
:10305800F0EE470AB0EE670A4348FEF70BFB414B18
:103068001B681846FDF726FA02460B461046194615
:10307800FDF7BCFC07EE900AF0EEE77A3B4B1B68C5
:1030880007EE103AB8EEC77AF0EE470AB0EE670AD4
:103098003748FEF7EFFA374B1978374B1878374B24
:1030A8001C78374B1B78374A1278374D2D6807EE56
:1030B800905AF8EEE77A01920093B0EE670A234639
:1030C80002463248FEF7A6FB314B45221A701C4BCC
:1030D8009B692F4AC2F801301A4B9B692C4AC2F8E7
:1030E8000530174B1B6A2A4AC2F80930154B1B6A70
:1030F800274AC2F80D30114B5B6A254AC2F81130D5
:10310800244B1B68224AC2F81530104B1B88204AF2
:10311800A2F81930094B1B6B1D4AC2F81B301C4B17
:103128000A22DA7720221A491B4807F0AFF900BFB4
:103138000837BD46B0BD00BF9C06002074010020C2
:10314800BC010020E4010020640300202C080020BA
:103158003008002000000020380300200100FFFF95
:103168002808002024080020A400002020080020AF
:10317800E800002028000020290000202A00002064
:103188002B000020400800201C0800202C010020F3
:10319800FC020020340800204805002080B400AF5D
:1031A80072B600BF00BFFDE780B582B000AF0F4B1D
:1031B8001B6E0E4A43F0010313660C4B1B6E03F0A3
:1031C80001037B607B68094B9B6D084A43F0805381
:1031D8009365064B9B6D03F080533B603B6804F09E
:1031E800DFFB00BF0837BD4680BD00BF00100240AE
:1031F80080B5A0B000AF786007F16C0300221A60B8
:103208005A609A60DA601A6107F1180354220021A3
:10321800184608F0F9FE7B681B68B3F1A04F77D118
:103228004FF40043BB614FF00053FB6507F11803EF
:10323800184605F0F3F80346002B01D0FFF7AEFF60
:10324800354BDB6C344A43F40053D364324BDB6CAC
:1032580003F400537B617B692F4BDB6C2E4A43F0F0
:103268000103D3642C4BDB6C03F001033B613B6926
:10327800294BDB6C284A43F00203D364264BDB6CF2
:1032880003F00203FB60FB680323FB6603233B6731
:1032980000237B6707F16C0319464FF0904002F05A
:1032A80023FD0123FB6603233B6700237B6707F1AC
:1032B8006C031946194802F017FD194B194A1A6090
:1032C800174B05225A60164B00229A60144B0022B5
:1032D800DA60134B80221A61114B4FF480725A61E5
:1032E8000F4B4FF480629A610D4B2022DA610C4B30
:1032F80000221A620A4802F0B7F90346002B01D0EF
:10330800FFF74CFF7B68064A5A65054A7B6893625B
:1033180000BF8037BD4680BD001002400004004851
:10332800D40300200800024080B59EB000AF78604A
:1033380007F1640300221A605A609A60DA601A6121
:1033480007F1100354220021184608F05DFE7B683F
:103358001B68504A934240F0998040233B61002308
:10336800FB6207F11003184605F058F80346002BD6
:1033780001D0FFF713FF484BDB6C474A43F00203C9
:10338800D364454BDB6C03F00203FB60FB684FF42E
:1033980040737B661223BB660023FB6600233B67F2
:1033A80004237B6707F1640319463C4802F09CFC40
:1033B800394B9B6D384A43F400139365364B9B6D2C
:1033C80003F40013BB60BB68354B364A1A60344BB4
:1033D80010225A60324B00229A60314B0022DA6088
:1033E8002F4B80221A612E4B00225A612C4B00224F
:1033F8009A612B4B0022DA61294B00221A62284875
:1034080002F032F90346002B01D0FFF7C7FE7B68B4
:10341800234ADA63224A7B689362234B234A1A6061
:10342800214B11225A60204B10229A601E4B002219
:10343800DA601D4B80221A611B4B00225A611A4B1D
:1034480000229A61184B0022DA61174B00221A6297
:10345800154802F009F90346002B01D0FFF79EFE3C
:103468007B68114A9A63104A7B68936200220021A4
:103478001F2002F0C4F81F2002F0DBF80022002110
:10348800202002F0BCF8202002F0D3F800BF7837E3
:10349800BD4680BD005400400010024000040048B2
:1034A8008804002044000240E8040020580002403C
:1034B80080B59EB000AF786007F1640300221A60FF
:1034C8005A609A60DA601A6107F1100354220021E9
:1034D800184608F099FD7B681B684D4A934240F0F6
:1034E800928020233B610023BB6207F1100318463A
:1034F80004F094FF0346002B01D0FFF74FFE454B25
:10350800DB6D444A43F00103D365424BDB6D03F0A6
:103518000103FB60FB683F4BDB6C3E4A43F0010351
:10352800D3643C4BDB6C03F00103BB60BB680C232A
:103538007B660223BB660023FB6600233B670C23E4
:103548007B6707F1640319464FF0904002F0CCFB0B
:10355800314B324A1A60304B22225A602E4B0022DD
:103568009A602D4B0022DA602B4B80221A612A4B7D
:1035780000225A61284B00229A61274B2022DA61E7
:10358800254B00221A62244802F06EF80346002BED
:1035980001D0FFF703FE7B681F4AC3F880201E4A4C
:1035A8007B6893621E4B1F4A1A601D4B23225A6088
:1035B8001B4B10229A601A4B0022DA60184B8022AB
:1035C8001A61174B00225A61154B00229A61144B5D
:1035D8000022DA61124B00221A62114802F044F804
:1035E8000346002B01D0FFF7D9FD7B680C4ADA6748
:1035F8000B4A7B689362002200215B2001F0FFFFE9
:103608005B2002F016F800BF7837BD4680BD00BFCA
:103618000080004000100240DC0500201C00024031
:103628003C0600203000024080B586B000AF7860CC
:103638007B681B68B3F1804F14D1274B9B6D264ADA
:1036480043F001039365244B9B6D03F001037B61F9
:103658007B69002200211C2001F0D1FF1C2001F011
:10366800E8FF34E07B681B681C4A93420CD11A4B74
:103678009B6D194A43F004039365174B9B6D03F048
:1036880004033B613B6922E07B681B68144A934250
:103698000CD1114B1B6E104A43F4005313660E4BAA
:1036A8001B6E03F40053FB60FB6810E07B681B682B
:1036B8000C4A93420BD1084B1B6E074A43F4801304
:1036C8001366054B1B6E03F48013BB60BB6800BF19
:1036D8001837BD4680BD00BF0010024000080040FA
:1036E800003401400050014080B58AB000AF7860D6
:1036F80007F1140300221A605A609A60DA601A61AE
:103708007B681B68174A934228D1174B9B6D164A52
:1037180043F002039365144B9B6D03F002033B6176
:103728003B69114BDB6C104A43F00103D3640E4B29
:10373800DB6C03F00103FB60FB68C0237B610223A1
:10374800BB610023FB6100233B6202237B6207F11C
:10375800140319464FF0904002F0C6FA00BF28370C
:10376800BD4680BD000400400010024080B58AB00C
:1037780000AF786007F1140300221A605A609A605B
:10378800DA601A617B681B68344A93421ED1344B55
:10379800DB6C334A43F00103D364314BDB6C03F039
:1037A80001033B613B694FF4C0537B610223BB615A
:1037B8000023FB6100233B620A237B6207F11403A9
:1037C80019464FF0904002F08FFA43E07B681B687F
:1037D800244A93421CD1224BDB6C214A43F0040358
:1037E800D3641F4BDB6C03F00403FB60FB68C0234E
:1037F8007B610223BB610023FB6100233B6204233E
:103808007B6207F114031946174802F06DFA21E0AC
:103818007B681B68154A93421CD1114BDB6C104A1C
:1038280043F00403D3640E4BDB6C03F00403BB606A
:10383800BB684FF480737B610223BB610023FB618B
:1038480000233B6206237B6207F1140319460648EE
:1038580002F04AFA00BF2837BD4680BD0008004084
:1038680000100240003401400008004800500140A8
:1038780080B400AF00BFFDE780B400AF00BFFDE734
:1038880080B400AF00BFFDE780B400AF00BFFDE724
:1038980080B400AF00BFFDE780B400AF00BFBD46F5
:1038A8005DF8047B704780B400AF00BFBD465DF88B
:1038B800047B704780B400AF00BFBD465DF8047B51
:1038C800704780B500AF00F029F900BF80BD000047
:1038D80080B500AF024802F0AAF800BF80BD00BF63
:1038E800D403002080B500AF024802F0A0F800BF62
:1038F80080BD00BFDC05002080B500AF024802F0A3
:1039080096F800BF80BD00BF3C06002080B500AF20
:10391800024802F08CF800BF80BD00BF8804002078
:1039280080B500AF024802F082F800BF80BD00BF3A
:10393800E804002080B500AF024805F0A5FB00BFF1
:1039480080BD00BF9C06002080B500AF024802F091
:1039580051FE00BF80BD00BF3404002080B500AF19
:10396800024802F061FE00BF80BD00BF34040020A1
:1039780080B500AF4FF4005002F050FB00BF80BD8F
:1039880080B500AF024806F04DFE00BF80BD00BF05
:103998004805002080B586B000AF7860144A154B02
:1039A800D31A7B617B693B61134B1B68002B02D1E7
:1039B800114B124A1A60104B1A687B6813443A6913
:1039C8009A4207D208F038FB03460C221A604FF0DF
:1039D800FF3309E0084B1B68FB60074B1A687B68DC
:1039E8001344054A1360FB6818461837BD4680BD66
:1039F800000002200004000044080020980900206C
:103A080080B400AF064BD3F88830054A43F47003FE
:103A1800C2F8883000BFBD465DF8047B704700BF20
:103A280000ED00E00D488546FFF7EAFF0C480D4918
:103A38000D4A002302E0D458C4500433C4188C4201
:103A4800F9D30A4A0A4C002301E013600432A24267
:103A5800FBD308F0F7FAFEF7FBFCFEE700000220B4
:103A680000000020880000201CC1000888000020F9
:103A780094090020FEE780B582B000AF0023FB71F7
:103A8800032001F0B1FD002000F00EF80346002BE2
:103A980002D00123FB7101E0FFF786FBFB79184692
:103AA8000837BD4680BD000080B584B000AF78609F
:103AB8000023FB73164B1B68002B22D0154B1A688A
:103AC800134B1B684FF47A71B1FBF3F3B2FBF3F3BA
:103AD800184601F0BCFD0346002B0FD17B680F2B65
:103AE80009D8002279684FF0FF3001F088FD0A4AB2
:103AF8007B68136007E00123FB7304E00123FB7379
:103B080001E00123FB73FB7B18461037BD4680BDDF
:103B1800340000202C0000203000002080B400AFCA
:103B2800054B1A68054B1B681344034A136000BF12
:103B3800BD465DF8047B704748080020340000202B
:103B480080B400AF034B1B681846BD465DF8047B84
:103B5800704700BF4808002080B483B000AF786089
:103B680039607B689B6823F47C123B681A437B6846
:103B78009A6000BF0C37BD465DF8047B704780B47F
:103B880083B000AF786039607B689B6823F0E0728F
:103B98003B681A437B689A6000BF0C37BD465DF8E6
:103BA800047B704780B483B000AF78607B689B6803
:103BB80003F0E07318460C37BD465DF8047B704788
:103BC80080B487B000AFF860B9607A603B60FB688A
:103BD80060331A46BB689B0013447B617B691A6893
:103BE800084B13407A6802F0F8413A680A431343D5
:103BF80043F000427B691A6000BF1C37BD465DF880
:103C0800047B704700F0FF0380B485B000AF786094
:103C180039607B6860331A463B689B001344FB603D
:103C2800FB681B6803F0F84318461437BD465DF877
:103C3800047B704780B487B000AFF860B9607A60E1
:103C4800FB6860331A46BB689B0013447B617B6941
:103C58001B6823F000427B681A437B691A6000BF27
:103C68001C37BD465DF8047B704780B487B000AF51
:103C7800F860B9607A60FB6860331A46BB689B00DD
:103C880013447B617B691B6823F080727B681A434D
:103C98007B691A6000BF1C37BD465DF8047B70471E
:103CA80080B487B000AFF860B9607A60FB686033B1
:103CB8001A46BB689B0013447B617B691B6823F031
:103CC80000727B681A437B691A6000BF1C37BD46C7
:103CD8005DF8047B704780B483B000AF78603960CA
:103CE8007B685B6923F000423B681A437B685A6132
:103CF80000BF0C37BD465DF8047B704780B483B0C5
:103D080000AF78607B68DB6803F44063002B01D167
:103D1800012300E0002318460C37BD465DF8047BFC
:103D2800704780B487B000AFF860B9607A60FB680C
:103D380030331A46BB681B0A9B0003F00C0313447C
:103D48007B617B691A68BB6803F01F031F2101FAB6
:103D580003F3DB431A407B689B0E03F01F01BB682B
:103D680003F01F0301FA03F31A437B691A6000BFCB
:103D78001C37BD465DF8047B704780B487B000AF40
:103D8800F860B9607A60FB6814331A46BB685B0E4A
:103D98009B0003F0040313447B617B691A68BB68CA
:103DA8001B0D03F01F03072101FA03F3DB431A403D
:103DB800BB681B0D03F01F03796801FA03F31A436C
:103DC8007B691A6000BF1C37BD465DF8047B7047ED
:103DD80080B485B000AFF860B9607A60FB68D3F84A
:103DE800B020BB68C3F31203DB431A407B6803F0BF
:103DF80018030849D940BB680B40C3F312031A43A0
:103E0800FB68C3F8B02000BF1437BD465DF8047BDB
:103E1800704700BFFFFF070080B483B000AF786031
:103E28007B689B6803F01F0318460C37BD465DF896
:103E3800047B704780B483B000AF78607B689B6870
:103E480023F0204323F03F037A68936000BF0C37C8
:103E5800BD465DF8047B704780B483B000AF7860DE
:103E68007B689B6803F00053B3F1005F01D1012325
:103E780000E0002318460C37BD465DF8047B704708
:103E880080B483B000AF78607B689B6823F01043F0
:103E980023F03F0343F080527B689A6000BF0C37E1
:103EA800BD465DF8047B704780B483B000AF78608E
:103EB8007B689B6803F08053B3F1805F01D10123D5
:103EC80000E0002318460C37BD465DF8047B7047B8
:103ED80080B483B000AF78607B689B6823F00043B0
:103EE80023F03F0343F001027B689A6000BF0C3760
:103EF800BD465DF8047B704780B483B000AF78603E
:103F08007B689B6823F0004323F03F0343F00202E1
:103F18007B689A6000BF0C37BD465DF8047B70472C
:103F280080B483B000AF78607B689B6803F00103BE
:103F3800012B01D1012300E0002318460C37BD46B0
:103F48005DF8047B704780B483B000AF78607B680D
:103F58009B6803F00203022B01D1012300E0002338
:103F680018460C37BD465DF8047B704780B483B0B3
:103F780000AF78607B689B6823F0004323F03F0321
:103F880043F004027B689A6000BF0C37BD465DF8B9
:103F9800047B704780B483B000AF78607B689B680F
:103FA80003F00403042B01D1012300E00023184689
:103FB8000C37BD465DF8047B704780B483B000AF12
:103FC80078607B689B6803F00803082B01D1012304
:103FD80000E0002318460C37BD465DF8047B7047A7
:103FE80090B589B000AF78600023FB770023FB60B1
:103FF8007B68002B01D10123A9E17B685B69002B59
:104008007B68DB6D002B09D17868FFF7F1F87B68D6
:1040180000221A667B68002283F858207B681B6898
:104028001846FFF719FF0346002B04D07B681B686E
:104038001846FFF7FFFE7B681B681846FFF734FF3A
:104048000346002B15D17B681B681846FFF718FF3D
:104058009C4B1B689B099C4AA2FB03239B090133C9
:104068005B00FB6002E0FB68013BFB60FB68002B28
:10407800F9D17B681B681846FFF716FF0346002B2B
:104088000DD17B68DB6D43F010027B68DA657B68D5
:104098001B6E43F001027B681A660123FB777B687D
:1040A8001B681846FFF776FF78617B68DB6D03F0C5
:1040B8001003002B40F042817B69002B40F03E81C9
:1040C8007B68DB6D23F4817343F002027B68DA6559
:1040D8007B681B681846FFF723FF0346002B41D176
:1040E8007B681B68B3F1A04F04D07B681B68774AD4
:1040F80093420FD14FF0A040FFF712FF04467348D8
:10410800FFF70EFF03462343002B0CBF01230023B8
:10411800DBB212E06E48FFF703FF04466D48FFF775
:10412800FFFE03461C436C48FFF7FAFE0346234391
:10413800002B0CBF01230023DBB2002B12D07B68BD
:104148001B68B3F1A04F04D07B681B685F4A934299
:1041580001D1624A00E0624A7B685B6819461046F2
:10416800FFF7FAFC7B685B7F5A037B68DB6B1A43BB
:104178007B68DB681A437B689B681A437B6893F803
:1041880024301B041343BB617B6893F82430012B54
:1041980006D17B689B6A013B5B04BA691343BB6128
:1041A8007B68DB6A002B09D07B68DB6A03F47872D2
:1041B8007B681B6B1343BA691343BB617B681B683D
:1041C800DA68484B13407A681268B9690B43D360C0
:1041D8007B681B681B6923F040617B685A6B7B68AE
:1041E8001B680A431A617B681B681846FFF7E5FEDF
:1041F80038617B69002B7FD13B69002B7CD17B68C0
:104208001B7F9A037B6893F838305B001343BB61CC
:104218007B681B68DB6823F4804323F002037A6819
:104228001268B9690B43D3607B681B69002B17D0F0
:104238007B681B681A697B681B6842F480321A61C4
:104248007B681B68D3F8C03023F47F5323F03F0307
:104258007A6811697A6812680B43C2F8C03013E0B3
:104268007B681B681A697B681B6822F480321A61B4
:104278007B681B68D3F8C0307A68126823F47F53D0
:1042880023F03F03C2F8C0307B6893F84030012B1D
:104298002AD17B681B681B6923F4FF6323F004039E
:1042A8007A68516C7A68926C11437A68D26C1143BF
:1042B8007A68126D0A431A437B681B6842F0010250
:1042C8001A6119E02C000020632D3E050001005002
:1042D8000004005000050050000600500003005084
:1042E800000700500740F0FF7B681B681A697B686D
:1042F8001B6822F001021A617B685B69012B0CD1F3
:104308007B681B681B6B23F00F017B681B6A5A1EB6
:104318007B681B680A431A6307E07B681B681A6B93
:104328007B681B6822F00F021A637B68DB6D23F041
:10433800030343F001027B68DA6507E07B68DB6D05
:1043480043F010027B68DA650123FB77FB7F184690
:104358002437BD4690BD00BF80B586B000AFF86079
:10436800B9607A60FB681B68B3F1A04F04D0FB68A2
:104378001B685A4A934201D1594B00E0594B1846E1
:10438800FFF74AFD3861FB681B681846FFF702FE15
:104398000346002B40F09B80FB6893F85830012BB4
:1043A80001D1022396E0FB68012283F85820FB68BC
:1043B8001B684D4A934208D03B69002B05D03B69E6
:1043C800052B02D03B69092B7AD1F86800F0F6FC7E
:1043D8000346FB75FB7D002B6DD1FB68DB6D23F479
:1043E800706323F0010343F48072FB68DA65FB68AD
:1043F8001B683A4A934209D0FB681B683B4A9342C0
:1044080002D0FB681B6803E0394B01E04FF0A04382
:10441800FA681268934202D03B69002B05D1FB6809
:10442800DB6D23F48012FB68DA65FB68DB6D03F44F
:104438008053002B06D0FB681B6E23F00602FB6836
:104448001A6602E0FB6800221A66FB685B6D294A5F
:10445800DA62FB685B6D284A1A63FB685B6D274A62
:104468005A63FB681B681C221A60FB68002283F8E9
:104478005820FB681B685A68FB681B6842F01002EA
:104488005A60FB681B68DA68FB681B6842F0010227
:10449800DA60FB68586DFB681B6840331946BA68D8
:1044A8007B6801F089F90346FB75FB681B681846B1
:1044B800FFF75CFD0DE0FB68002283F8582008E058
:1044C8000123FB75FB68002283F8582001E00223D2
:1044D800FB75FB7D18461837BD4680BD00010050AE
:1044E800000300500007005000060050000500506F
:1044F80000040050AF4F000887500008A350000880
:1045080080B483B000AF786000BF0C37BD465DF85B
:10451800047B704780B483B000AF786000BF0C376D
:10452800BD465DF8047B704780B483B000AF786007
:1045380000BF0C37BD465DF8047B704780B5B6B048
:1045480000AF78603960002387F8D7300023FB601C
:104558007B6893F85830012B02D1022300F013BC7A
:104568007B68012283F858207B681B681846FFF790
:1045780011FD0346002B40F0F3837B6818683B6805
:1045880059683B681B681A46FFF7CBFB7B681B68BA
:104598001846FFF7FFFCC7F8D0007B681B68184671
:1045A800FFF70BFDC7F8CC00D7F8D030002B40F050
:1045B800D981D7F8CC30002B40F0D4813B689B6878
:1045C800B3F1004F0FD17B6818683B681B68002265
:1045D8001946FFF7D2FB7B681B684FF0004118466D
:1045E800FFF779FB0EE07B6818683B6819683B6841
:1045F8009B681A46FFF7C1FB7B681B6800211846B9
:10460800FFF769FB3B685A697B681B68DB68DB0856
:1046180003F003035B0002FA03F3C7F8C8303B68F2
:104628001B69042B22D07B6818683B6819693B68B2
:104638001A68D7F8C830FFF7C3FA7B6818683B6870
:1046480019693B689B691A46FFF70FFB7B68186876
:104658003B6819693B681B7F012B02D14FF000733F
:1046680000E000231A46FFF71BFB7BE17B681B6811
:1046780000211846FFF7C8FA0346C3F31203002BBC
:104688000AD17B681B6800211846FFF7BDFA03466C
:104698009B0E03F01F021EE07B681B680021184672
:1046A800FFF7B2FA0346C7F8BC30D7F8BC3093FA24
:1046B800A3F3C7F8B830D7F8B830C7F8C030D7F880
:1046C800C030002B01D1202304E0D7F8C030B3FA62
:1046D80083F3DBB21A463B681B68C3F31203002B53
:1046E80005D13B681B689B0E03F01F0318E03B686D
:1046F8001B68C7F8B030D7F8B03093FAA3F3C7F8FF
:10470800AC30D7F8AC30C7F8B430D7F8B430002B99
:1047180001D1202304E0D7F8B430B3FA83F3DBB235
:104728009A4206D17B681B68002200211846FFF7D1
:1047380081FA7B681B6801211846FFF765FA034672
:10474800C3F31203002B0AD17B681B6801211846AA
:10475800FFF75AFA03469B0E03F01F021EE07B6820
:104768001B6801211846FFF74FFA0346C7F8A43023
:10477800D7F8A43093FAA3F3C7F8A030D7F8A0303D
:10478800C7F8A830D7F8A830002B01D1202304E0BF
:10479800D7F8A830B3FA83F3DBB21A463B681B6834
:1047A800C3F31203002B05D13B681B689B0E03F073
:1047B8001F0318E03B681B68C7F89830D7F8983093
:1047C80093FAA3F3C7F89430D7F89430C7F89C301D
:1047D800D7F89C30002B01D1202304E0D7F89C3077
:1047E800B3FA83F3DBB29A4206D17B681B680022D6
:1047F80001211846FFF71EFA7B681B68022118463C
:10480800FFF702FA0346C3F31203002B0AD17B68B1
:104818001B6802211846FFF7F7F903469B0E03F0C1
:104828001F021EE07B681B6802211846FFF7ECF99F
:104838000346C7F88C30D7F88C3093FAA3F3C7F83F
:104848008830D7F88830C7F89030D7F89030002BE8
:1048580001D1202304E0D7F89030B3FA83F3DBB218
:104868001A463B681B68C3F31203002B05D13B684B
:104878001B689B0E03F01F0316E03B681B68C7F814
:104888008030D7F8803093FAA3F3FB67FB6FC7F843
:104898008430D7F88430002B01D1202304E0D7F8E6
:1048A8008430B3FA83F3DBB29A4206D17B681B6883
:1048B800002202211846FFF7BDF97B681B68032117
:1048C8001846FFF7A1F90346C3F31203002B0AD1D8
:1048D8007B681B6803211846FFF796F903469B0E71
:1048E80003F01F0217E07B681B6803211846FFF7D7
:1048F8008BF903467B677B6F93FAA3F33B673B6FA8
:10490800BB67BB6F002B01D1202303E0BB6FB3FA59
:1049180083F3DBB21A463B681B68C3F31203002B10
:1049280005D13B681B689B0E03F01F0311E03B6831
:104938001B68BB66BB6E93FAA3F37B667B6EFB6654
:10494800FB6E002B01D1202303E0FB6EB3FA83F347
:10495800DBB29A4206D17B681B6800220321184605
:10496800FFF768F97B681B681846FFF7D9FA034612
:10497800002B40F03D817B6818683B6819683B68EC
:10498800DB681A46FFF724FA3B68DB68A24A9342C1
:1049980040F02E817B6818683B681B68C3F31203DC
:1049A800002B0BD13B681B689B0E013303F01F03E0
:1049B800092B94BF01230023DBB219E03B681B6875
:1049C800FB65FB6D93FAA3F3BB65BB6D3B663B6E62
:1049D800002B01D1202303E03B6EB3FA83F3DBB253
:1049E800013303F01F03092B94BF01230023DBB21B
:1049F800002B79D03B681B68C3F31203002B07D147
:104A08003B681B689B0E01339B0603F0F84215E0D8
:104A18003B681B683B653B6D93FAA3F3FB64FB6C37
:104A28007B657B6D002B01D1202303E07B6DB3FAFE
:104A380083F3DBB201339B0603F0F8423B681B6843
:104A4800C3F31203002B09D13B681B689B0E01338B
:104A580003F01F03012101FA03F317E03B681B6809
:104A68007B647B6C93FAA3F33B643B6CBB64BB6CC9
:104A7800002B01D1202303E0BB6CB3FA83F3DBB234
:104A8800013303F01F03012101FA03F342EA030192
:104A98003B681B68C3F31203002B0AD13B681B68F1
:104AA8009B0E013303F01F0213465B0013441B05E2
:104AB80018E03B681B68BB63BB6B93FAA3F37B638B
:104AC8007B6BFB63FB6B002B01D1202303E0FB6BAB
:104AD800B3FA83F3DBB2013303F01F0213465B0022
:104AE80013441B050B437EE03B681B68C3F31203AA
:104AF800002B07D13B681B689B0E01339B0603F014
:104B0800F84215E03B681B68FB62FB6A93FAA3F363
:104B1800BB62BB6A3B633B6B002B01D1202303E0E4
:104B28003B6BB3FA83F3DBB201339B0603F0F84225
:104B38003B681B68C3F31203002B09D13B681B6851
:104B48009B0E013303F01F03012101FA03F317E061
:104B58003B681B683B623B6A93FAA3F3FB61FB6902
:104B68007B627B6A002B01D1202303E07B6AB3FAC6
:104B780083F3DBB2013303F01F03012101FA03F3CE
:104B880042EA03013B681B68C3F31203002B0DD1F3
:104B98003B681B689B0E013303F01F0213465B0042
:104BA80013441E3B1B0543F000731BE03B681B6866
:104BB8007B617B6993FAA3F33B613B69BB61BB698A
:104BC800002B01D1202303E0BB69B3FA83F3DBB2E6
:104BD800013303F01F0213465B0013441E3B1B0501
:104BE80043F000730B433A6892681946FFF7C5F81B
:104BF8003B681A68094B1340002B00F0BE807B68A5
:104C08001B68B3F1A04F04D07B681B68044A934229
:104C18000AD1044B09E000BF00007F400000088073
:104C28000001005000030050594B1846FEF7BAFF28
:104C3800C7F8C4003B681B68564A934204D03B68D7
:104C48001B68554A93423AD1D7F8C43003F400039D
:104C5800002B34D17B681B68B3F1A04F05D07B686B
:104C68001B684E4A934240F085807B681B68B3F10D
:104C7800A04F04D07B681B68494A934201D1494A36
:104C880000E0434AD7F8C43043F4000319461046FD
:104C9800FEF775FF444B1B689B09444AA2FB03239C
:104CA8009B095A1C13465B0013449B00FB6002E0FF
:104CB800FB68013BFB60FB68002BF9D15AE03B68BD
:104CC8001B683B4A934225D1D7F8C43003F0807360
:104CD800002B1FD17B681B68314A934204D17B6843
:104CE8001B68344A934247D07B681B68B3F1A04FD6
:104CF80004D07B681B682A4A934201D1294A00E004
:104D0800234AD7F8C43043F0807319461046FEF79B
:104D180036FF31E03B681B68274A93422DD1D7F80C
:104D2800C43003F48003002B27D17B681B681C4A1E
:104D3800934222D07B681B68B3F1A04F04D07B68F4
:104D48001B68174A934201D1164A00E0104AD7F867
:104D5800C43043F4800319461046FEF710FF0CE0F8
:104D68007B68DB6D43F020027B68DA65012387F8F6
:104D7800D73002E000BF00E000BF7B68002283F864
:104D8800582097F8D7301846D837BD4680BD00BFA1
:104D980000070050000021C31000C090000600501A
:104DA80000010050000300502C000020632D3E0538
:104DB800000052C700050050000084CB80B584B0C5
:104DC80000AF78600023BB607B681B681846FFF75C
:104DD800A7F80346002B76D17B681B689A683C4B82
:104DE8001340002B0DD07B68DB6D43F010027B680D
:104DF800DA657B681B6E43F001027B681A66012343
:104E080062E07B681B681846FFF762F87B681B68DE
:104E1800B3F1A04F04D07B681B682E4A934201D19E
:104E28002D4B00E02D4B1846FEF7BCFE034603F45D
:104E38000003002B13D02A4B1B689B09294AA2FBAD
:104E480003239B095A1C13465B0013449B00BB6059
:104E580002E0BB68013BBB60BB68002BF9D1FEF7E1
:104E68006FFEF86028E07B681B681846FFF758F863
:104E78000346002B04D17B681B681846FFF728F807
:104E8800FEF75EFE0246FB68D31A022B14D97B6834
:104E98001B681B6803F00103012B0DD07B68DB6DD9
:104EA80043F010027B68DA657B681B6E43F00102F1
:104EB8007B681A66012307E07B681B681B6803F0A0
:104EC8000103012BCFD1002318461037BD4680BD02
:104ED8003F00008000010050000300500007005010
:104EE8002C000020632D3E0580B584B000AF7860AB
:104EF8007B681B681846FFF726F8F8607B681B6814
:104F08001846FFF70DF80346002B47D0FB68002B27
:104F180044D17B681B689B6803F00D03012B0CD1FF
:104F28007B681B681846FEF7E7FF7B681B6803224F
:104F38001A60FEF705FEB86029E07B68DB6D43F078
:104F480010027B68DA657B681B6E43F001027B68A0
:104F58001A66012323E0FEF7F3FD0246BB68D31A65
:104F6800022B14D97B681B689B6803F00103002B94
:104F78000DD07B68DB6D43F010027B68DA657B68D7
:104F88001B6E43F001027B681A66012307E07B6809
:104F98001B689B6803F00103002BDCD10023184633
:104FA8001037BD4680BD80B584B000AF78607B689F
:104FB8009B6AFB60FB68DB6D03F05003002B4BD151
:104FC800FB68DB6D43F40072FB68DA65FB681B68FD
:104FD8001B6803F00803002B21D0FB681B681846E8
:104FE800FEF78CFE0346002B32D0FB681B68DB689B
:104FF80003F40053002B2BD1FB68DB6D23F4807284
:10500800FB68DA65FB68DB6D03F48053002B1FD166
:10501800FB68DB6D43F00102FB68DA6518E0FB68AA
:105028001B68DB6803F00203002B11D1FB68DB6D02
:1050380023F48072FB68DA65FB68DB6D03F4805348
:10504800002B05D1FB68DB6D43F00102FB68DA65D4
:10505800F868FFF755FA0EE0FB68DB6D03F0100304
:10506800002B03D0F868FFF75FFA04E0FB685B6D7C
:105078005B6B7868984700BF1037BD4680BD80B528
:1050880084B000AF78607B689B6AFB60F868FFF7C4
:1050980041FA00BF1037BD4680BD80B584B000AF6F
:1050A80078607B689B6AFB60FB68DB6D43F04002BD
:1050B800FB68DA65FB681B6E43F00402FB681A663E
:1050C800F868FFF731FA00BF1037BD4680BD80B4DD
:1050D80083B000AF78607B689B6803F00103012B05
:1050E80001D1012300E0002318460C37BD465DF8C6
:1050F800047B704780B483B000AF786039607B6808
:105108009B6823F0404323F03F033A6802F0804253
:10511800134343F000427B689A6000BF0C37BD46DA
:105128005DF8047B704780B483B000AF78607B681B
:105138009B6803F00043B3F1004F01D1012300E065
:10514800002318460C37BD465DF8047B704780B4D1
:1051580083B000AF78607B689B6803F00403042B7E
:1051680001D1012300E0002318460C37BD465DF845
:10517800047B704780B584B000AF78603960002345
:10518800BB607B6893F85830012B01D102234DE0B6
:105198007B68012283F858207868FFF7A5FE03464C
:1051A800FB73FB7B002B36D17B68DB6D23F48853C4
:1051B80023F0020343F002027B68DA657B681B6810
:1051C80039681846FFF796FF14E0BB680133BB60E7
:1051D800BB68184A93420DD97B68DB6D23F0120334
:1051E80043F010027B68DA657B68002283F8582058
:1051F80001231BE07B681B681846FFF794FF0346F2
:10520800002BE2D17B68DB6D23F0030343F001023E
:105218007B68DA6505E07B68DB6D43F010027B682C
:10522800DA657B68002283F85820FB7B1846103724
:10523800BD4680BD01DE040090B5A1B000AF786026
:105248003960002387F87F307B6893F85830012B4A
:1052580001D10223E7E07B68012283F8582000236C
:105268007B660023BB667B681B68B3F1A04F02D145
:105278006F4BBB6009E07B681B686E4A934202D1A2
:105288006D4BBB6001E00023BB60BB68002B0BD1FA
:105298007B68DB6D43F020027B68DA657B6800225F
:1052A80083F858200123BEE0BB681846FFF74FFF7C
:1052B800B8677B681B681846FFF749FF0346002B51
:1052C80040F0A080BB6F002B40F09C807B681B687F
:1052D800B3F1A04F04D07B681B68554A934201D1B3
:1052E800564B00E0564B7B673B681B68002B4BD046
:1052F8007B6F9B6823F460423B6859687B6893F82E
:1053080038305B030B431A437B6F9A607B681B68DA
:10531800B3F1A04F04D07B681B68454A93420FD174
:105328004FF0A040FFF7D3FE04464148FFF7CFFEF9
:1053380003462343002B0CBF01230023DBB212E0FA
:105348003C48FFF7C4FE04463B48FFF7C0FE03464F
:105358001C433C48FFF7BBFE03462343002B0CBF0E
:1053680001230023DBB2002B56D07B6F9B6823F40C
:10537800716323F00F033A6811683A6892680A4328
:105388001A437B6F9A6047E07B6F9B6823F4604207
:105398007B6F9A607B681B68B3F1A04F04D07B6871
:1053A8001B68234A93420FD14FF0A040FFF78FFEAE
:1053B80004461F48FFF78BFE03462343002B0CBF10
:1053C80001230023DBB212E01A48FFF780FE0446EF
:1053D8001948FFF77CFE03461C431A48FFF777FE7F
:1053E80003462343002B0CBF01230023DBB2002B11
:1053F80012D07B6F9B6823F4716323F00F037A6FDD
:10540800936009E07B68DB6D43F020027B68DA6516
:10541800012387F87F3000E000BF7B68002283F813
:10542800582097F87F3018468437BD4690BD00BF96
:105438000001005000040050000500500003005017
:10544800000700500006005080B485B000AF7860B7
:105458007B6803F00703FB600C4BDB68BB60BA6832
:105468004FF6FF031340BB60FB681A02BB68134387
:1054780043F0BF6343F40033BB60044ABB68D360A6
:1054880000BF1437BD465DF8047B704700ED00E0AF
:1054980080B400AF044BDB681B0A03F0070318460F
:1054A800BD465DF8047B704700ED00E080B483B032
:1054B80000AF0346FB7197F90730002B0BDBFB7934
:1054C80003F01F02074997F907305B09012000FA2A
:1054D80002F241F8232000BF0C37BD465DF8047B7B
:1054E800704700BF00E100E080B483B000AF03461E
:1054F8003960FB7197F90730002B0ADB3B68DAB299
:105508000C4997F907301201D2B20B4483F80023F3
:105518000AE03B68DAB20849FB7903F00F03043B61
:105528001201D2B20B441A7600BF0C37BD465DF8A3
:10553800047B704700E100E000ED00E080B489B032
:1055480000AFF860B9607A60FB6803F00703FB619D
:10555800FB69C3F10703042B28BF0423BB61FB6964
:105568000433062B02D9FB69033B00E000237B616F
:105578004FF0FF32BB6902FA03F3DA43BB681A4003
:105588007B699A404FF0FF317B6901FA03F3D943F5
:105598007B680B40134318462437BD465DF8047BEF
:1055A8007047000080B582B000AF78607B68013B2F
:1055B800B3F1807F01D301230FE00A4A7B68013BE6
:1055C80053600F214FF0FF30FFF78EFF054B00228D
:1055D8009A60044B07221A60002318460837BD4614
:1055E80080BD00BF10E000E080B582B000AF7860F9
:1055F8007868FFF729FF00BF0837BD4680BD80B532
:1056080086B000AF0346B9607A60FB73FFF740FFCE
:1056180078617A68B9687869FFF790FF024697F968
:105628000F3011461846FFF75FFF00BF1837BD4619
:1056380080BD80B582B000AF0346FB7197F9073093
:105648001846FFF733FF00BF0837BD4680BD80B559
:1056580082B000AF78607868FFF7A4FF0346184669
:105668000837BD4680BD000080B584B000AF7860C3
:105678007B68002B01D101238DE07B681B681A46EB
:10568800474B9A420FD87B681B681A46454B134410
:10569800454AA2FB03231B099A007B685A647B686E
:1056A800424A1A640EE07B681B681A46404B134452
:1056B8003D4AA2FB03231B099A007B685A647B6856
:1056C8003C4A1A647B68022283F825207B681B68A1
:1056D8001B68FB60FB6823F4FF4323F07003FB6047
:1056E8007B689A687B68DB681A437B681B691A4386
:1056F8007B685B691A437B689B691A437B68DB6933
:105708001A437B681B6A1343FA681343FB607B6880
:105718001B68FA681A60786800F084FA7B689B68EE
:10572800B3F5804F02D17B6800225A607B685A68C3
:105738007B689B6CD2B21A607B68DB6C7A68126DEE
:105748005A607B685B68002B10D07B685B68042B11
:105758000CD8786800F0A4FA7B685B6D00221A60A8
:105768007B689B6D7A68D26D5A6008E07B6800227E
:105778005A657B6800229A657B680022DA657B6837
:105788000022DA637B68012283F825207B680022E7
:1057980083F82420002318461037BD4680BD00BF7B
:1057A80007040240F8FFFDBFCDCCCCCC000002407E
:1057B800F8FBFDBF0004024080B586B000AFF8607A
:1057C800B9607A603B600023FB75FB6893F824306E
:1057D800012B01D1022366E0FB68012283F8242013
:1057E800FB6893F82530DBB2012B55D1FB68022208
:1057F80083F82520FB680022DA63FB681B681A68B7
:10580800FB681B6822F001021A603B687A68B96875
:10581800F86800F0C9F9FB681B6B002B08D0FB681F
:105828001B681A68FB681B6842F00E021A600FE0DA
:10583800FB681B681A68FB681B6822F004021A6080
:10584800FB681B681A68FB681B6842F00A021A604A
:10585800FB689B6C1B6803F48033002B07D0FB6844
:105868009B6C1A68FB689B6C42F480721A60FB6838
:105878005B6D002B07D0FB685B6D1A68FB685B6D7E
:1058880042F480721A60FB681B681A68FB681B6820
:1058980042F001021A6005E0FB68002283F8242028
:1058A8000223FB75FB7D18461837BD4680BD80B4C2
:1058B80085B000AF78600023FB737B6893F82530D0
:1058C800DBB2022B05D07B680422DA630123FB7369
:1058D80037E07B681B681A687B681B6822F00E0239
:1058E8001A607B689B6C1A687B689B6C22F48072D8
:1058F8001A607B681B681A687B681B6822F00102C3
:105908001A607B685B6C03F01F027B681B6C0121CB
:1059180001FA02F25A607B68DB6C7A68126D5A6091
:105928007B685B6D002B0CD07B685B6D1A687B68AD
:105938005B6D22F480721A607B689B6D7A68D26D09
:105948005A607B68012283F825207B68002283F84F
:105958002420FB7B18461437BD465DF8047B70474E
:1059680080B584B000AF78600023FB737B6893F840
:105978002530DBB2022B0DD07B680422DA637B680A
:10598800012283F825207B68002283F82420012344
:10599800FB7347E07B681B681A687B681B6822F00A
:1059A8000E021A607B681B681A687B681B6822F005
:1059B80001021A607B689B6C1A687B689B6C22F4F6
:1059C80080721A607B685B6C03F01F027B681B6C3B
:1059D800012101FA02F25A607B68DB6C7A68126D69
:1059E8005A607B685B6D002B0CD07B685B6D1A6816
:1059F8007B685B6D22F480721A607B689B6D7A68A5
:105A0800D26D5A607B68012283F825207B680022CA
:105A180083F824207B689B6B002B03D07B689B6BEF
:105A280078689847FB7B18461037BD4680BD80B51F
:105A380084B000AF78607B681B6C1B68FB607B6878
:105A48001B681B68BB607B685B6C03F01F03042248
:105A58009A40FB681340002B26D0BB6803F0040370
:105A6800002B21D07B681B681B6803F02003002BE8
:105A780007D17B681B681A687B681B6822F00402E0
:105A88001A607B685B6C03F01F027B681B6C042147
:105A980001FA02F25A607B681B6B002B71D07B689D
:105AA8001B6B786898476CE07B685B6C03F01F039E
:105AB80002229A40FB681340002B2ED0BB6803F0EB
:105AC8000203002B29D07B681B681B6803F02003A6
